:100000000C9437000C945F000C945F000C945F001C
:100010000C945F000C945F000C945F000C945F00E4
:100020000C945F000C945F000C945F000C945F00D4
:100030000C945F000C94D8010C945F000C945F004A
:100040000C9407010C945F000C945F000C945F000B
:100050000C945F000C945F000C945F000C945F00A4
:100060000C945F000C945F0056019201370211243A
:100070001FBECFEFD8E0DEBFCDBF12E0A0E0B1E001
:10008000E6E4FEE002C005900D92A836B107D9F76C
:1000900022E0A8E6B2E001C01D92AD3AB207E1F756
:1000A00010E0C7E3D0E004C02197FE010E944402A3
:1000B000C433D107C9F70E94A0000C9421070C9407
:1000C0000000FC0101900020E9F73197E81BF90BD3
:1000D0001E161F063CF43197E80FF91F80818A3005
:1000E00009F410820895CF93DF9300D01F92CDB70B
:1000F000DEB71A821982FB0120812223C9F0FC019C
:100100002081FB013081231B2B832B81222311F0C3
:100110008B8110C029813A812F5F3F4F3A83298319
:1001200029813A81232B59F701966F5F7F4FE3CFE7
:10013000FC0180810F900F900F90DF91CF91089577
:100140000F931F93CF93DF93CDB7DEB7A0970FB672
:10015000F894DEBF0FBECDBF789481E392E09F9309
:100160008F930E94C1024091A3025091A40268E2C1
:1001700070E08E010F5F1F4FC8010E949502C801F9
:100180000E9461001F930F9382E492E09F938F93EC
:100190000E94C10210923C0110923B010F900F90FF
:1001A0000F900F900F900F900DE412E01F930F939C
:1001B0000E94C1024091A3025091A40268E270E043
:1001C00088E692E00E94950288E692E00E94610033
:1001D00069E072E088E692E00E9473000F900F9051
:1001E0008111E4CF8FE592E09F938F930E94C1022B
:1001F0000F900F9080E090E0A0960FB6F894DEBFCD
:100200000FBECDBFDF91CF911F910F9108951F9227
:100210000F920FB60F9211242F933F934F935F933A
:100220008F939F93EF93FF9380919002909191020F
:10023000009739F1FC0124E0F695E7952A95E1F75E
:10024000E050FF4F208130E0969587958770992781
:10025000A90102C0559547958A95E2F740FF04C071
:1002600095B18AE0892785B9809192028F5F80934A
:10027000920281110EC0809190029091910201979B
:1002800004C0339906C080EA93E090939102809372
:100290009002FF91EF919F918F915F914F913F91CC
:1002A0002F910F900FBE0F901F90189584B18A6008
:1002B00084B93B98439AEEE6F0E0808181608083C8
:1002C00085B5826085BD0895CF93C82F8A3019F413
:1002D0008DE00E9464018091C00085FFFCCFC09337
:1002E000C6008C2FCC0F990BCF910895CF93DF933D
:1002F0002091C00027FFFCCFC091C600D0E0CD30D8
:10030000D10511F4CAE0D0E020913B0130913C01CD
:10031000232B21F0BC018C2F0E946401CE01DF91C0
:10032000CF910895E1ECF0E080818861808386E0E0
:100330008093C2001092C50087E68093C40066E7F0
:1003400071E084E691E00C944A025A98529AF8942B
:100350006150710908F424C0FC010190008007D0AD
:10036000029005D001900190019001D017C008D0F3
:1003700007D006D005D004D003D002D001D0089514
:100380005A9A001C0000000008F05A980000000073
:1003900000000000000008F45A980895CF01D8CF5B
:1003A00078948FE391E00197F1F700C00000089581
:1003B0001F920F920FB60F9211242F933F934F93DA
:1003C0005F936F937F938F939F93AF93BF93CF93DD
:1003D000DF93EF93FF93E091A202EE2381F1E150CE
:1003E000E093A202C3E9D2E020E030E0F0E0EE0FBB
:1003F000FF1FE35CFE4F80819181022E02C0969523
:1004000087950A94E2F783709927DC01AA0FBB1F36
:100410008A0F9B1FDC01A153BE4F8D919D91AC9122
:1004200089939993A9932E5F3F4F2A30310519F78D
:1004300065E070E083E992E00E94A50105C0329971
:1004400003C089E48093A202FF91EF91DF91CF91E5
:10045000BF91AF919F918F917F916F915F914F91DC
:100460003F912F910F900FBE0F901F9018953A98C3
:10047000429AEFE6F0E0808181608083E1E8F0E07D
:100480008081816080830895EE0FFF1F0590F491B5
:10049000E02D09940F931F93CF93DF93009731F4CE
:1004A0006115710519F480E090E03AC08B01EC0110
:1004B0006EE070E081E090E00E94B804FC01892BBE
:1004C00091F380E883830115110571F0138702878A
:1004D00081E883838091A3029091A402892B21F467
:1004E000F093A402E093A3022097C9F0D187C087BC
:1004F0008381826083838091A5029091A602892BDB
:1005000071F4F093A602E093A5028091A702909166
:10051000A802892B21F4F093A802E093A702CF014F
:10052000DF91CF911F910F910895A0E0B0E0EBE92A
:10053000F2E00C94F406FA01238120FD03C080E070
:1005400090E01AC016161706D4F77A018C01EB0159
:100550006C01C130D10569F0C7010E9412068F3FBE
:10056000FFEF9F0761F3F60181936F0121970A97CF
:1005700081F7F6011082C801CDB7DEB7E8E00C9430
:100580001007A0E0B0E0E7ECF2E00C94FA06AE0150
:100590004B5F5F4FFA0161917191AF018091A502AC
:1005A0009091A6020E94D702E2E00C941607ABE0FD
:1005B000B0E0EDEDF2E00C94EA066C017B018A01FB
:1005C000FC0117821682838181FFCCC1CE01019686
:1005D0003C01F6019381F70193FD859193FF819191
:1005E0007F01882309F4BAC1853239F493FD8591DE
:1005F00093FF81917F01853229F4B60190E00E943A
:100600005006E7CF912C212C312CFFE1F315D8F0C7
:100610008B3279F038F4803279F08332A1F4232DD3
:1006200020611DC08D3261F0803369F4232D21607B
:1006300016C0832D8260382EE32DE4603E2E2AC042
:10064000F32DF8601DC037FC2DC020ED280F2A3097
:1006500040F08E32B9F436FC81C1232D2064322E55
:1006600019C036FE06C08AE0989E200D1124922EF5
:1006700011C0EAE02E9E200D1124222EF32DF062EF
:100680003F2E08C08C3621F4832D8068382E02C09E
:10069000883641F4F70193FD859193FF81917F01A5
:1006A0008111B3CF982F9F7D9554933028F40C5F20
:1006B0001F4F9FE399830DC0833631F0833771F06C
:1006C000833509F059C021C0F801808189830E5F0C
:1006D0001F4F88248394912C530113C02801F2E00A
:1006E0004F0E511CF801A080B18036FE03C0692D69
:1006F00070E002C06FEF7FEFC5010E9407064C015A
:100700008201F32DFF773F2E16C0280122E0420E12
:10071000511CF801A080B18036FE03C0692D70E045
:1007200002C06FEF7FEFC5010E94F5054C01F32D6C
:10073000F0683F2E820133FC1BC0822D90E08816AA
:100740009906B0F4B60180E290E00E9450062A9427
:10075000F4CFF50137FC859137FE81915F01B60139
:1007600090E00E94500621102A9421E0821A9108FC
:100770008114910471F7E8C0843611F0893641F58F
:10078000F80137FE07C060817181828193810C5F1F
:100790001F4F08C060817181072E000C880B990BD8
:1007A0000E5F1F4FF32DFF763F2E97FF09C09095E8
:1007B0008095709561957F4F8F4F9F4FF0683F2ECA
:1007C0002AE030E0A3010E948C06882E861845C0DE
:1007D000853731F4232D2F7EB22E2AE030E025C05C
:1007E000932D997FB92E8F36C1F018F4883579F0A2
:1007F000B5C0803719F0883721F0B0C0E92FE0612B
:10080000BE2EB4FE0DC0FB2DF460BF2E09C034FE19
:100810000AC0292F2660B22E06C028E030E005C0AD
:1008200020E130E002C020E132E0F801B7FE07C06D
:1008300060817181828193810C5F1F4F06C060814E
:10084000718180E090E00E5F1F4FA3010E948C0633
:10085000882E8618FB2DFF773F2E36FE0DC0232DE8
:100860002E7FA22E891458F434FE0BC032FC09C02E
:10087000832D8E7EA82E05C0B82CA32C03C0B82CC7
:1008800001C0B92CA4FE0FC0FE01E80DF11D80814E
:10089000803321F49A2D997EA92E09C0A2FE06C0AC
:1008A000B394B39404C08A2D867809F0B394A3FC62
:1008B00011C0A0FE06C0B21488F4280C922C9B181C
:1008C0000EC0B21460F4B60180E290E00E945006BF
:1008D000B394F7CFB21418F42B1802C0982C212C23
:1008E000A4FE10C0B60180E390E00E945006A2FE74
:1008F00017C0A1FC03C088E790E002C088E590E043
:10090000B6010CC08A2D867859F0A1FE02C08BE298
:1009100001C080E2A7FC8DE2B60190E00E94500683
:10092000891438F4B60180E390E00E9450069A944E
:10093000F7CF8A94F301E80DF11D8081B60190E0B4
:100940000E9450068110F5CF222009F442CEB60154
:1009500080E290E00E9450062A94F6CFF60186814C
:10096000978102C08FEF9FEF2B96E2E10C94060770
:100970000F931F93CF93DF93869F8001879F100D66
:10098000969F100D1124C8010E94D404EC01009719
:1009900029F0A80160E070E00E940006CE01DF911E
:1009A000CF911F910F9108950F931F93CF93DF93D2
:1009B0008230910510F482E090E0E091AB02F0917A
:1009C000AC0220E030E0A0E0B0E0309719F14081C7
:1009D00051810281138148175907C8F08417950780
:1009E00069F4109731F012960C93129713961C939A
:1009F00027C00093AB021093AC0222C02115310531
:100A000019F04217530718F49A01BD01EF01DF01F5
:100A1000F801DBCF21153105F9F0281B390B243003
:100A2000310580F48A819B816115710521F0FB01FC
:100A30009383828304C09093AC028093AB02FE0147
:100A4000329644C0FE01E20FF31F8193919322502E
:100A50003109398328833AC02091A9023091AA0232
:100A6000232B41F42091DD013091DE013093AA0265
:100A70002093A9022091DB013091DC012115310581
:100A800041F42DB73EB74091DF015091E001241BA6
:100A9000350BE091A902F091AA02E217F307A0F446
:100AA0002E1B3F0B2817390778F0AC014E5F5F4FC4
:100AB0002417350748F04E0F5F1F5093AA0240934A
:100AC000A9028193919302C0E0E0F0E0CF01DF91B1
:100AD000CF911F910F910895CF93DF93009709F461
:100AE00081C0FC01329713821282A091AB02B091B7
:100AF000AC02109781F420813181820F931F2091E5
:100B0000A9023091AA022817390751F5F093AA02D9
:100B1000E093A90267C0ED0120E030E0CE17DF07C7
:100B200040F44A815B819E0141155105F1F0EA01D3
:100B3000F5CFD383C28340815181840F951FC8179D
:100B4000D90759F488819981840F951F0296918362
:100B500080838A819B81938382832115310529F4C7
:100B6000F093AC02E093AB023DC0E901FB83EA8362
:100B700049915991C40FD51FEC17FD0761F480818D
:100B80009181840F951F0296E90199838883828160
:100B900093819B838A83E0E0F0E012968D919C9193
:100BA0001397009719F0FD01DC01F7CF8D919C910F
:100BB00011979D012E5F3F4F820F931F2091A90235
:100BC0003091AA022817390769F4309729F4109256
:100BD000AC021092AB0202C013821282B093AA023E
:100BE000A093A902DF91CF910895FC010590615077
:100BF00070400110D8F7809590958E0F9F1F089533
:100C0000DC0101C06D9341505040E0F70895FC01B4
:100C10006150704001900110D8F7809590958E0F2B
:100C20009F1F0895CF93DF93EC012B8120FF33C0EA
:100C300026FF0AC02F7B2B838E819F8101969F8385
:100C40008E838A8190E029C022FF0FC0E881F9815C
:100C50008081082E000C990B009719F420622B83D9
:100C60001AC03196F983E8830EC0EA85FB850995A1
:100C700097FF09C02B81019611F080E201C080E14D
:100C8000822B8B8308C02E813F812F5F3F4F3F8394
:100C90002E83992702C08FEF9FEFDF91CF910895A8
:100CA0000F931F93CF93DF93FB01238121FD03C09B
:100CB0008FEF9FEF2CC022FF16C046815781248101
:100CC00035814217530744F4A081B1819D012F5F04
:100CD0003F4F318320838C93268137812F5F3F4F95
:100CE0003783268314C08B01EC01FB010084F1855E
:100CF000E02D0995892BE1F6D80116968D919C91EE
:100D00001797019617969C938E931697CE01DF91B5
:100D1000CF911F910F910895FA01AA27283051F120
:100D2000203181F1E8946F936E7F6E5F7F4F8F4F1C
:100D30009F4FAF4FB1E03ED0B4E03CD0670F781F7B
:100D4000891F9A1FA11D680F791F8A1F911DA11D60
:100D50006A0F711D811D911DA11D20D009F4689499
:100D60003F912AE0269F11243019305D3193DEF641
:100D7000CF010895462F4770405D4193B3E00FD0F7
:100D8000C9F7F6CF462F4F70405D4A3318F0495DE2
:100D900031FD4052419302D0A9F7EACFB4E0A695C5
:100DA0009795879577956795BA95C9F700976105E7
:100DB000710508959B01AC010A2E0694579547953D
:100DC00037952795BA95C9F7620F731F841F951F32
:100DD000A01D08952F923F924F925F926F927F9243
:100DE0008F929F92AF92BF92CF92DF92EF92FF923B
:100DF0000F931F93CF93DF93CDB7DEB7CA1BDB0BE7
:100E00000FB6F894DEBF0FBECDBF09942A8839888B
:100E100048885F846E847D848C849B84AA84B98492
:100E2000C884DF80EE80FD800C811B81AA81B9819E
:100E3000CE0FD11D0FB6F894DEBF0FBECDBFED01B2
:100E40000895F894FFCF005C075D1DC745544754D3
:100E500071D445445774751C5D4754D0D5715C44BA
:100E6000754415475D44744557C7D175440551070E
:100E70005D71741D5C77741D5C77741D5C77741DE7
:100E800000010000001000550101010000A2022233
:100E9000022A02000003033303FF03000001005590
:100EA0000101000000A8022200A8020000CF0330C8
:100EB00000FF03000051011101150100008802220A
:100EC00000AA02000003033303FF03000000010037
:100ED000015501000000020002AA020000FF030306
:100EE00003FF03000000010001550100000202AAF7
:100EF00002200000000300FF0303000000010101C5
:100F0000015501000002022202AA020000F303338D
:100F1000033F030000000000FF000000FF0000008E
:100F2000FF0000AD022000626F6775737B66696E1B
:100F3000645F6C6172735F776974685F7265616C1E
:100F40005F666C61675F62616467657D0000006277
:100F50006F6775737B6C617273685F6861735F62E2
:100F6000616467655F776974685F7265616C5F660D
:100F70006C61677D000000456E74657220796F7545
:100F8000206E616D653A200048656C6C6F2025739A
:100F9000210A000A456E7465722070617373776F61
:0E0FA00072643A200057656C636F6D65210026
:00000001FF
